# Half close Packet data
#
# sudo tcpdump "tcp[tcpflags] & (tcp-syn|tcp-ack|tcp-fin) != 0" -XX > half_close.md
#
# ./reverb1
# ./netcat3

23:21:54.276697 IP localhost.41708 > localhost.8000: Flags [S], seq 1071119679, win 43690, options [mss 65495,sackOK,TS val 11918648 ecr 0,nop,wscale 7], length 0
	0x0000:  0000 0304 0006 0000 0000 0000 0000 0800  ................
	0x0010:  4500 003c 2007 4000 4006 1cb3 7f00 0001  E..<..@.@.......
	0x0020:  7f00 0001 a2ec 1f40 3fd7 fd3f 0000 0000  .......@?..?....
	0x0030:  a002 aaaa fe30 0000 0204 ffd7 0402 080a  .....0..........
	0x0040:  00b5 dd38 0000 0000 0103 0307            ...8........
23:21:54.276704 IP localhost.8000 > localhost.41708: Flags [S.], seq 748974558, ack 1071119680, win 43690, options [mss 65495,sackOK,TS val 11918648 ecr 11918648,nop,wscale 7], length 0
	0x0000:  0000 0304 0006 0000 0000 0000 0000 0800  ................
	0x0010:  4500 003c 0000 4000 4006 3cba 7f00 0001  E..<..@.@.<.....
	0x0020:  7f00 0001 1f40 a2ec 2ca4 71de 3fd7 fd40  .....@..,.q.?..@
	0x0030:  a012 aaaa fe30 0000 0204 ffd7 0402 080a  .....0..........
	0x0040:  00b5 dd38 00b5 dd38 0103 0307            ...8...8....
23:21:54.276709 IP localhost.41708 > localhost.8000: Flags [.], ack 1, win 342, options [nop,nop,TS val 11918648 ecr 11918648], length 0
	0x0000:  0000 0304 0006 0000 0000 0000 0000 0800  ................
	0x0010:  4500 0034 2008 4000 4006 1cba 7f00 0001  E..4..@.@.......
	0x0020:  7f00 0001 a2ec 1f40 3fd7 fd40 2ca4 71df  .......@?..@,.q.
	0x0030:  8010 0156 fe28 0000 0101 080a 00b5 dd38  ...V.(.........8
	0x0040:  00b5 dd38                                ...8
23:21:57.544396 IP localhost.41708 > localhost.8000: Flags [P.], seq 1:6, ack 1, win 342, options [nop,nop,TS val 11919465 ecr 11918648], length 5
	0x0000:  0000 0304 0006 0000 0000 0000 0000 0800  ................
	0x0010:  4500 0039 2009 4000 4006 1cb4 7f00 0001  E..9..@.@.......
	0x0020:  7f00 0001 a2ec 1f40 3fd7 fd40 2ca4 71df  .......@?..@,.q.
	0x0030:  8018 0156 fe2d 0000 0101 080a 00b5 e069  ...V.-.........i
	0x0040:  00b5 dd38 4655 434b 0a                   ...8FUCK.
23:21:57.544406 IP localhost.8000 > localhost.41708: Flags [.], ack 6, win 342, options [nop,nop,TS val 11919465 ecr 11919465], length 0
	0x0000:  0000 0304 0006 0000 0000 0000 0000 0800  ................
	0x0010:  4500 0034 ace7 4000 4006 8fda 7f00 0001  E..4..@.@.......
	0x0020:  7f00 0001 1f40 a2ec 2ca4 71df 3fd7 fd45  .....@..,.q.?..E
	0x0030:  8010 0156 fe28 0000 0101 080a 00b5 e069  ...V.(.........i
	0x0040:  00b5 e069                                ...i
23:21:57.544457 IP localhost.8000 > localhost.41708: Flags [P.], seq 1:8, ack 6, win 342, options [nop,nop,TS val 11919465 ecr 11919465], length 7
	0x0000:  0000 0304 0006 0000 0000 0000 0000 0800  ................
	0x0010:  4500 003b ace8 4000 4006 8fd2 7f00 0001  E..;..@.@.......
	0x0020:  7f00 0001 1f40 a2ec 2ca4 71df 3fd7 fd45  .....@..,.q.?..E
	0x0030:  8018 0156 fe2f 0000 0101 080a 00b5 e069  ...V./.........i
	0x0040:  00b5 e069 0920 4655 434b 0a              ...i..FUCK.
23:21:57.544462 IP localhost.41708 > localhost.8000: Flags [.], ack 8, win 342, options [nop,nop,TS val 11919465 ecr 11919465], length 0
	0x0000:  0000 0304 0006 0000 0000 0000 0000 0800  ................
	0x0010:  4500 0034 200a 4000 4006 1cb8 7f00 0001  E..4..@.@.......
	0x0020:  7f00 0001 a2ec 1f40 3fd7 fd45 2ca4 71e6  .......@?..E,.q.
	0x0030:  8010 0156 fe28 0000 0101 080a 00b5 e069  ...V.(.........i
	0x0040:  00b5 e069                                ...i
23:21:58.224153 IP localhost.41708 > localhost.8000: Flags [F.], seq 6, ack 8, win 342, options [nop,nop,TS val 11919635 ecr 11919465], length 0
	0x0000:  0000 0304 0006 0000 0000 0000 0000 0800  ................
	0x0010:  4500 0034 200b 4000 4006 1cb7 7f00 0001  E..4..@.@.......
	0x0020:  7f00 0001 a2ec 1f40 3fd7 fd45 2ca4 71e6  .......@?..E,.q.
	0x0030:  8011 0156 fe28 0000 0101 080a 00b5 e113  ...V.(..........
	0x0040:  00b5 e069                                ...i
23:21:58.261694 IP localhost.8000 > localhost.41708: Flags [.], ack 7, win 342, options [nop,nop,TS val 11919645 ecr 11919635], length 0
	0x0000:  0000 0304 0006 0000 0000 0000 0000 0800  ................
	0x0010:  4500 0034 ace9 4000 4006 8fd8 7f00 0001  E..4..@.@.......
	0x0020:  7f00 0001 1f40 a2ec 2ca4 71e6 3fd7 fd46  .....@..,.q.?..F
	0x0030:  8010 0156 fe28 0000 0101 080a 00b5 e11d  ...V.(..........
	0x0040:  00b5 e113                                ....
23:21:58.545135 IP localhost.8000 > localhost.41708: Flags [P.], seq 8:15, ack 7, win 342, options [nop,nop,TS val 11919715 ecr 11919635], length 7
	0x0000:  0000 0304 0006 0000 0000 0000 0000 0800  ................
	0x0010:  4500 003b acea 4000 4006 8fd0 7f00 0001  E..;..@.@.......
	0x0020:  7f00 0001 1f40 a2ec 2ca4 71e6 3fd7 fd46  .....@..,.q.?..F
	0x0030:  8018 0156 fe2f 0000 0101 080a 00b5 e163  ...V./.........c
	0x0040:  00b5 e113 0920 4655 434b 0a              ......FUCK.
23:21:58.545152 IP localhost.41708 > localhost.8000: Flags [.], ack 15, win 342, options [nop,nop,TS val 11919715 ecr 11919715], length 0
	0x0000:  0000 0304 0006 0000 0000 0000 0000 0800  ................
	0x0010:  4500 0034 200c 4000 4006 1cb6 7f00 0001  E..4..@.@.......
	0x0020:  7f00 0001 a2ec 1f40 3fd7 fd46 2ca4 71ed  .......@?..F,.q.
	0x0030:  8010 0156 fe28 0000 0101 080a 00b5 e163  ...V.(.........c
	0x0040:  00b5 e163                                ...c
23:21:59.545356 IP localhost.8000 > localhost.41708: Flags [P.], seq 15:22, ack 7, win 342, options [nop,nop,TS val 11919965 ecr 11919715], length 7
	0x0000:  0000 0304 0006 0000 0000 0000 0000 0800  ................
	0x0010:  4500 003b aceb 4000 4006 8fcf 7f00 0001  E..;..@.@.......
	0x0020:  7f00 0001 1f40 a2ec 2ca4 71ed 3fd7 fd46  .....@..,.q.?..F
	0x0030:  8018 0156 fe2f 0000 0101 080a 00b5 e25d  ...V./.........]
	0x0040:  00b5 e163 0920 6675 636b 0a              ...c..fuck.
23:21:59.545374 IP localhost.41708 > localhost.8000: Flags [.], ack 22, win 342, options [nop,nop,TS val 11919965 ecr 11919965], length 0
	0x0000:  0000 0304 0006 0000 0000 0000 0000 0800  ................
	0x0010:  4500 0034 200d 4000 4006 1cb5 7f00 0001  E..4..@.@.......
	0x0020:  7f00 0001 a2ec 1f40 3fd7 fd46 2ca4 71f4  .......@?..F,.q.
	0x0030:  8010 0156 fe28 0000 0101 080a 00b5 e25d  ...V.(.........]
	0x0040:  00b5 e25d                                ...]
23:21:59.545391 IP localhost.8000 > localhost.41708: Flags [F.], seq 22, ack 7, win 342, options [nop,nop,TS val 11919965 ecr 11919965], length 0
	0x0000:  0000 0304 0006 0000 0000 0000 0000 0800  ................
	0x0010:  4500 0034 acec 4000 4006 8fd5 7f00 0001  E..4..@.@.......
	0x0020:  7f00 0001 1f40 a2ec 2ca4 71f4 3fd7 fd46  .....@..,.q.?..F
	0x0030:  8011 0156 fe28 0000 0101 080a 00b5 e25d  ...V.(.........]
	0x0040:  00b5 e25d                                ...]
23:21:59.545395 IP localhost.41708 > localhost.8000: Flags [.], ack 23, win 342, options [nop,nop,TS val 11919965 ecr 11919965], length 0
	0x0000:  0000 0304 0006 0000 0000 0000 0000 0800  ................
	0x0010:  4500 0034 200e 4000 4006 1cb4 7f00 0001  E..4..@.@.......
	0x0020:  7f00 0001 a2ec 1f40 3fd7 fd46 2ca4 71f5  .......@?..F,.q.
	0x0030:  8010 0156 fe28 0000 0101 080a 00b5 e25d  ...V.(.........]
	0x0040:  00b5 e25d                                ...]

